{
  "transactions": [
    {
      "hash": "0xeb149918db1d4610504bdfcd8bb0359e1f5f8388d007caf275d729824019b946",
      "transactionType": "CALL",
      "contractName": null,
      "contractAddress": "0x048ac9be9365053c5569daa9860cbd5671869188",
      "function": "deposit()",
      "arguments": [],
      "transaction": {
        "from": "0x1d58afb3a049dad98ab5219fb1ff768e1e3b2ed3",
        "to": "0x048ac9be9365053c5569daa9860cbd5671869188",
        "gas": "0xf3f2",
        "value": "0x11c37937e08000",
        "input": "0xd0e30db0",
        "nonce": "0x1",
        "chainId": "0x61"
      },
      "additionalContracts": [],
      "isFixedGasLimit": false
    },
    {
      "hash": "0xbfd43fc788f1da204ba5625005eec5def2ea6e2fee100fff71b3beb00cee2196",
      "transactionType": "CALL",
      "contractName": null,
      "contractAddress": "0x048ac9be9365053c5569daa9860cbd5671869188",
      "function": "withdraw(uint256)",
      "arguments": [
        "2000000000000000"
      ],
      "transaction": {
        "from": "0x1d58afb3a049dad98ab5219fb1ff768e1e3b2ed3",
        "to": "0x048ac9be9365053c5569daa9860cbd5671869188",
        "gas": "0xc159",
        "value": "0x0",
        "input": "0x2e1a7d4d00000000000000000000000000000000000000000000000000071afd498d0000",
        "nonce": "0x2",
        "chainId": "0x61"
      },
      "additionalContracts": [],
      "isFixedGasLimit": false
    }
  ],
  "receipts": [
    {
      "status": "0x1",
      "cumulativeGasUsed": "0xb09e",
      "logs": [
        {
          "address": "0x048ac9be9365053c5569daa9860cbd5671869188",
          "topics": [
            "0x2da466a7b24304f47e87fa2e1e5a81b9831ce54fec19055ce277ca2f39ba42c4",
            "0x0000000000000000000000001d58afb3a049dad98ab5219fb1ff768e1e3b2ed3"
          ],
          "data": "0x0000000000000000000000000000000000000000000000000011c37937e08000",
          "blockHash": "0x88fcc1a8939db8bbcdc6191f28148fbd76e0a7fff3587270c75f91f9b8e358f1",
          "blockNumber": "0x31a80e7",
          "transactionHash": "0xeb149918db1d4610504bdfcd8bb0359e1f5f8388d007caf275d729824019b946",
          "transactionIndex": "0x0",
          "logIndex": "0x0",
          "removed": false
        }
      ],
      "logsBloom": "0x00000000000000000000000000000000000080000000000000000000000000000000000000020000000000010000000000000000000000000000000008000000000000000000000000000000000000000000000000000000000000000000200000000000000000000000000000000000000000004000000000000000000200000000000000000000000000000000000000000000000000000000000800000000000000000000000000000000000000000000000000000000000000000000000000000000000000000000000000000000000000000000000000000000000000000040000000000000000000000000000000000000000000000000000000000000",
      "type": "0x0",
      "transactionHash": "0xeb149918db1d4610504bdfcd8bb0359e1f5f8388d007caf275d729824019b946",
      "transactionIndex": "0x0",
      "blockHash": "0x88fcc1a8939db8bbcdc6191f28148fbd76e0a7fff3587270c75f91f9b8e358f1",
      "blockNumber": "0x31a80e7",
      "gasUsed": "0xb09e",
      "effectiveGasPrice": "0x12a05f200",
      "from": "0x1d58afb3a049dad98ab5219fb1ff768e1e3b2ed3",
      "to": "0x048ac9be9365053c5569daa9860cbd5671869188",
      "contractAddress": null
    },
    {
      "status": "0x1",
      "cumulativeGasUsed": "0x13c9a",
      "logs": [
        {
          "address": "0x048ac9be9365053c5569daa9860cbd5671869188",
          "topics": [
            "0x7084f5476618d8e60b11ef0d7d3f06914655adb8793e28ff7f018d4c76d505d5",
            "0x0000000000000000000000001d58afb3a049dad98ab5219fb1ff768e1e3b2ed3"
          ],
          "data": "0x00000000000000000000000000000000000000000000000000071afd498d0000",
          "blockHash": "0x88fcc1a8939db8bbcdc6191f28148fbd76e0a7fff3587270c75f91f9b8e358f1",
          "blockNumber": "0x31a80e7",
          "transactionHash": "0xbfd43fc788f1da204ba5625005eec5def2ea6e2fee100fff71b3beb00cee2196",
          "transactionIndex": "0x1",
          "logIndex": "0x1",
          "removed": false
        }
      ],
      "logsBloom": "0x00000000000000000000000000000000000080000000000000000000000000000000000000020000000000010000000000000000000000000000000008000000000000000000000000000000000000000000000000000004000000000000000000000000000000000000000000000000000000004000000000000000000000000000000000000000000100000000000000000000000000000000000800000000000000000000000000000000000000000000000000000000000000000000000000000000000200000000000000000000000000000000000000000000000000000000000000000000000000000000000000000000000000000000000000000000",
      "type": "0x0",
      "transactionHash": "0xbfd43fc788f1da204ba5625005eec5def2ea6e2fee100fff71b3beb00cee2196",
      "transactionIndex": "0x1",
      "blockHash": "0x88fcc1a8939db8bbcdc6191f28148fbd76e0a7fff3587270c75f91f9b8e358f1",
      "blockNumber": "0x31a80e7",
      "gasUsed": "0x8bfc",
      "effectiveGasPrice": "0x12a05f200",
      "from": "0x1d58afb3a049dad98ab5219fb1ff768e1e3b2ed3",
      "to": "0x048ac9be9365053c5569daa9860cbd5671869188",
      "contractAddress": null
    }
  ],
  "libraries": [],
  "pending": [],
  "returns": {},
  "timestamp": 1747516480,
  "chain": 97,
  "commit": "b5861c7"
}